{
  "contracts/merkelTreeAirdrop.sol": {
    "merkelTreeAirdrop": {
      "abi": [
        {
          "inputs": [
            {
              "internalType": "address",
              "name": "_token",
              "type": "address"
            },
            {
              "internalType": "address",
              "name": "_nftAddress",
              "type": "address"
            },
            {
              "internalType": "bytes32",
              "name": "_merkleRoot",
              "type": "bytes32"
            }
          ],
          "stateMutability": "nonpayable",
          "type": "constructor"
        },
        {
          "inputs": [],
          "name": "HasClaimedRewardsAlready",
          "type": "error"
        },
        {
          "inputs": [],
          "name": "InvalidClaim",
          "type": "error"
        },
        {
          "inputs": [],
          "name": "NftNotFound",
          "type": "error"
        },
        {
          "inputs": [],
          "name": "UnAuthorizedFunctionCall",
          "type": "error"
        },
        {
          "inputs": [],
          "name": "UnclaimedTokenStillMuch",
          "type": "error"
        },
        {
          "inputs": [],
          "name": "ZeroValueDetected",
          "type": "error"
        },
        {
          "inputs": [],
          "name": "zeroAddressDetected",
          "type": "error"
        },
        {
          "anonymous": false,
          "inputs": [
            {
              "indexed": true,
              "internalType": "address",
              "name": "_user",
              "type": "address"
            },
            {
              "indexed": true,
              "internalType": "uint256",
              "name": "_amount",
              "type": "uint256"
            }
          ],
          "name": "AirdropClaimed",
          "type": "event"
        },
        {
          "anonymous": false,
          "inputs": [
            {
              "indexed": true,
              "internalType": "address",
              "name": "_owner",
              "type": "address"
            },
            {
              "indexed": true,
              "internalType": "address",
              "name": "_user",
              "type": "address"
            },
            {
              "indexed": true,
              "internalType": "uint256",
              "name": "_amount",
              "type": "uint256"
            }
          ],
          "name": "TransferSuccessful",
          "type": "event"
        },
        {
          "anonymous": false,
          "inputs": [
            {
              "indexed": true,
              "internalType": "address",
              "name": "_owner",
              "type": "address"
            },
            {
              "indexed": true,
              "internalType": "uint256",
              "name": "_amount",
              "type": "uint256"
            }
          ],
          "name": "WithdrawalSuccessful",
          "type": "event"
        },
        {
          "inputs": [
            {
              "internalType": "uint256",
              "name": "_amount",
              "type": "uint256"
            },
            {
              "internalType": "bytes32[]",
              "name": "_merkelProof",
              "type": "bytes32[]"
            }
          ],
          "name": "claimAirdrop",
          "outputs": [],
          "stateMutability": "nonpayable",
          "type": "function"
        },
        {
          "inputs": [
            {
              "internalType": "address",
              "name": "",
              "type": "address"
            }
          ],
          "name": "claimed",
          "outputs": [
            {
              "internalType": "bool",
              "name": "",
              "type": "bool"
            }
          ],
          "stateMutability": "view",
          "type": "function"
        },
        {
          "inputs": [
            {
              "internalType": "address",
              "name": "_user",
              "type": "address"
            }
          ],
          "name": "getNFTBalance",
          "outputs": [
            {
              "internalType": "uint256",
              "name": "",
              "type": "uint256"
            }
          ],
          "stateMutability": "view",
          "type": "function"
        },
        {
          "inputs": [],
          "name": "merkleRoot",
          "outputs": [
            {
              "internalType": "bytes32",
              "name": "",
              "type": "bytes32"
            }
          ],
          "stateMutability": "view",
          "type": "function"
        },
        {
          "inputs": [],
          "name": "nftAddress",
          "outputs": [
            {
              "internalType": "address",
              "name": "",
              "type": "address"
            }
          ],
          "stateMutability": "view",
          "type": "function"
        },
        {
          "inputs": [],
          "name": "token",
          "outputs": [
            {
              "internalType": "address",
              "name": "",
              "type": "address"
            }
          ],
          "stateMutability": "view",
          "type": "function"
        },
        {
          "inputs": [
            {
              "internalType": "address",
              "name": "_to",
              "type": "address"
            },
            {
              "internalType": "uint256",
              "name": "_amount",
              "type": "uint256"
            }
          ],
          "name": "transferToken",
          "outputs": [],
          "stateMutability": "nonpayable",
          "type": "function"
        }
      ],
      "evm": {
        "bytecode": {
          "linkReferences": {},
          "object": "60806040523480156200001157600080fd5b506040516200129d3803806200129d8339818101604052810190620000379190620001ae565b82600160006101000a81548173ffffffffffffffffffffffffffffffffffffffff021916908373ffffffffffffffffffffffffffffffffffffffff16021790555081600260006101000a81548173ffffffffffffffffffffffffffffffffffffffff021916908373ffffffffffffffffffffffffffffffffffffffff16021790555080600381905550336000806101000a81548173ffffffffffffffffffffffffffffffffffffffff021916908373ffffffffffffffffffffffffffffffffffffffff1602179055505050506200020a565b600080fd5b600073ffffffffffffffffffffffffffffffffffffffff82169050919050565b60006200013b826200010e565b9050919050565b6200014d816200012e565b81146200015957600080fd5b50565b6000815190506200016d8162000142565b92915050565b6000819050919050565b620001888162000173565b81146200019457600080fd5b50565b600081519050620001a8816200017d565b92915050565b600080600060608486031215620001ca57620001c962000109565b5b6000620001da868287016200015c565b9350506020620001ed868287016200015c565b9250506040620002008682870162000197565b9150509250925092565b611083806200021a6000396000f3fe608060405234801561001057600080fd5b506004361061007d5760003560e01c80635bf8633a1161005b5780635bf8633a146100d8578063bf8ebd85146100f6578063c884ef8314610126578063fc0c546a146101565761007d565b80630bcae1ac146100825780631072cbea1461009e5780632eb4a7ab146100ba575b600080fd5b61009c60048036038101906100979190610a70565b610174565b005b6100b860048036038101906100b39190610b2e565b610480565b005b6100c26106d0565b6040516100cf9190610b87565b60405180910390f35b6100e06106d6565b6040516100ed9190610bb1565b60405180910390f35b610110600480360381019061010b9190610bcc565b6106fc565b60405161011d9190610c08565b60405180910390f35b610140600480360381019061013b9190610bcc565b6107a1565b60405161014d9190610c3e565b60405180910390f35b61015e6107c1565b60405161016b9190610bb1565b60405180910390f35b61017d336107e7565b6001600260009054906101000a900473ffffffffffffffffffffffffffffffffffffffff1673ffffffffffffffffffffffffffffffffffffffff166370a08231336040518263ffffffff1660e01b81526004016101da9190610bb1565b602060405180830381865afa1580156101f7573d6000803e3d6000fd5b505050506040513d601f19601f8201168201806040525081019061021b9190610c6e565b1015610253576040517fb7930b4000000000000000000000000000000000000000000000000000000000815260040160405180910390fd5b61025b6108bf565b15610292576040517f5183de0d00000000000000000000000000000000000000000000000000000000815260040160405180910390fd5b600033846040516020016102a7929190610d04565b60405160208183030381529060405280519060200120905061030d838380806020026020016040519081016040528093929190818152602001838360200280828437600081840152601f19601f820116905080830192505050505050506003548361091c565b610343576040517fed3c247c00000000000000000000000000000000000000000000000000000000815260040160405180910390fd5b6001600460003373ffffffffffffffffffffffffffffffffffffffff1673ffffffffffffffffffffffffffffffffffffffff16815260200190815260200160002060006101000a81548160ff021916908315150217905550600160009054906101000a900473ffffffffffffffffffffffffffffffffffffffff1673ffffffffffffffffffffffffffffffffffffffff1663a9059cbb33866040518363ffffffff1660e01b81526004016103f8929190610d30565b6020604051808303816000875af1158015610417573d6000803e3d6000fd5b505050506040513d601f19601f8201168201806040525081019061043b9190610d85565b61047a576040517f08c379a000000000000000000000000000000000000000000000000000000000815260040161047190610e0f565b60405180910390fd5b50505050565b610489336107e7565b600073ffffffffffffffffffffffffffffffffffffffff168273ffffffffffffffffffffffffffffffffffffffff16036104f8576040517f08c379a00000000000000000000000000000000000000000000000000000000081526004016104ef90610e7b565b60405180910390fd5b80600560003373ffffffffffffffffffffffffffffffffffffffff1673ffffffffffffffffffffffffffffffffffffffff16815260200190815260200160002054101561057a576040517f08c379a000000000000000000000000000000000000000000000000000000000815260040161057190610ee7565b60405180910390fd5b80600560003373ffffffffffffffffffffffffffffffffffffffff1673ffffffffffffffffffffffffffffffffffffffff16815260200190815260200160002060008282546105c99190610f36565b92505081905550600160009054906101000a900473ffffffffffffffffffffffffffffffffffffffff1673ffffffffffffffffffffffffffffffffffffffff1663a9059cbb83836040518363ffffffff1660e01b815260040161062d929190610d30565b6020604051808303816000875af115801561064c573d6000803e3d6000fd5b505050506040513d601f19601f820116820180604052508101906106709190610d85565b50808273ffffffffffffffffffffffffffffffffffffffff163373ffffffffffffffffffffffffffffffffffffffff167fd6d3eb25a413c05d8107fc49deb2789bef7f612582b2482804c0b0423b6638ee60405160405180910390a45050565b60035481565b600260009054906101000a900473ffffffffffffffffffffffffffffffffffffffff1681565b6000600260009054906101000a900473ffffffffffffffffffffffffffffffffffffffff1673ffffffffffffffffffffffffffffffffffffffff166370a08231836040518263ffffffff1660e01b81526004016107599190610bb1565b602060405180830381865afa158015610776573d6000803e3d6000fd5b505050506040513d601f19601f8201168201806040525081019061079a9190610c6e565b9050919050565b60046020528060005260406000206000915054906101000a900460ff1681565b600160009054906101000a900473ffffffffffffffffffffffffffffffffffffffff1681565b600073ffffffffffffffffffffffffffffffffffffffff168173ffffffffffffffffffffffffffffffffffffffff1614610856576040517f08c379a000000000000000000000000000000000000000000000000000000000815260040161084d90610fb6565b60405180910390fd5b600073ffffffffffffffffffffffffffffffffffffffff168173ffffffffffffffffffffffffffffffffffffffff16036108bc576040517fcfa8c0b500000000000000000000000000000000000000000000000000000000815260040160405180910390fd5b50565b60006108ca336107e7565b600460003373ffffffffffffffffffffffffffffffffffffffff1673ffffffffffffffffffffffffffffffffffffffff16815260200190815260200160002060009054906101000a900460ff16905090565b6000826109298584610933565b1490509392505050565b60008082905060005b845181101561097e576109698286838151811061095c5761095b610fd6565b5b6020026020010151610989565b9150808061097690611005565b91505061093c565b508091505092915050565b60008183106109a15761099c82846109b4565b6109ac565b6109ab83836109b4565b5b905092915050565b600082600052816020526040600020905092915050565b600080fd5b600080fd5b6000819050919050565b6109e8816109d5565b81146109f357600080fd5b50565b600081359050610a05816109df565b92915050565b600080fd5b600080fd5b600080fd5b60008083601f840112610a3057610a2f610a0b565b5b8235905067ffffffffffffffff811115610a4d57610a4c610a10565b5b602083019150836020820283011115610a6957610a68610a15565b5b9250929050565b600080600060408486031215610a8957610a886109cb565b5b6000610a97868287016109f6565b935050602084013567ffffffffffffffff811115610ab857610ab76109d0565b5b610ac486828701610a1a565b92509250509250925092565b600073ffffffffffffffffffffffffffffffffffffffff82169050919050565b6000610afb82610ad0565b9050919050565b610b0b81610af0565b8114610b1657600080fd5b50565b600081359050610b2881610b02565b92915050565b60008060408385031215610b4557610b446109cb565b5b6000610b5385828601610b19565b9250506020610b64858286016109f6565b9150509250929050565b6000819050919050565b610b8181610b6e565b82525050565b6000602082019050610b9c6000830184610b78565b92915050565b610bab81610af0565b82525050565b6000602082019050610bc66000830184610ba2565b92915050565b600060208284031215610be257610be16109cb565b5b6000610bf084828501610b19565b91505092915050565b610c02816109d5565b82525050565b6000602082019050610c1d6000830184610bf9565b92915050565b60008115159050919050565b610c3881610c23565b82525050565b6000602082019050610c536000830184610c2f565b92915050565b600081519050610c68816109df565b92915050565b600060208284031215610c8457610c836109cb565b5b6000610c9284828501610c59565b91505092915050565b60008160601b9050919050565b6000610cb382610c9b565b9050919050565b6000610cc582610ca8565b9050919050565b610cdd610cd882610af0565b610cba565b82525050565b6000819050919050565b610cfe610cf9826109d5565b610ce3565b82525050565b6000610d108285610ccc565b601482019150610d208284610ced565b6020820191508190509392505050565b6000604082019050610d456000830185610ba2565b610d526020830184610bf9565b9392505050565b610d6281610c23565b8114610d6d57600080fd5b50565b600081519050610d7f81610d59565b92915050565b600060208284031215610d9b57610d9a6109cb565b5b6000610da984828501610d70565b91505092915050565b600082825260208201905092915050565b7f5472616e73666572206661696c65642e00000000000000000000000000000000600082015250565b6000610df9601083610db2565b9150610e0482610dc3565b602082019050919050565b60006020820190508181036000830152610e2881610dec565b9050919050565b7f63616e27742073656e6420746f00000000000000000000000000000000000000600082015250565b6000610e65600d83610db2565b9150610e7082610e2f565b602082019050919050565b60006020820190508181036000830152610e9481610e58565b9050919050565b7f496e73756666696369656e742066756e64732100000000000000000000000000600082015250565b6000610ed1601383610db2565b9150610edc82610e9b565b602082019050919050565b60006020820190508181036000830152610f0081610ec4565b9050919050565b7f4e487b7100000000000000000000000000000000000000000000000000000000600052601160045260246000fd5b6000610f41826109d5565b9150610f4c836109d5565b9250828203905081811115610f6457610f63610f07565b5b92915050565b7f5a65726f20616464726573732064657465637465640000000000000000000000600082015250565b6000610fa0601583610db2565b9150610fab82610f6a565b602082019050919050565b60006020820190508181036000830152610fcf81610f93565b9050919050565b7f4e487b7100000000000000000000000000000000000000000000000000000000600052603260045260246000fd5b6000611010826109d5565b91507fffffffffffffffffffffffffffffffffffffffffffffffffffffffffffffffff820361104257611041610f07565b5b60018201905091905056fea264697066735822122038e9c731bbd34c6782111e7141e1c616c961518c4a20382a81d432a81871db8b64736f6c63430008140033",
          "opcodes": "PUSH1 0x80 PUSH1 0x40 MSTORE CALLVALUE DUP1 ISZERO PUSH3 0x11 JUMPI PUSH1 0x0 DUP1 REVERT JUMPDEST POP PUSH1 0x40 MLOAD PUSH3 0x129D CODESIZE SUB DUP1 PUSH3 0x129D DUP4 CODECOPY DUP2 DUP2 ADD PUSH1 0x40 MSTORE DUP2 ADD SWAP1 PUSH3 0x37 SWAP2 SWAP1 PUSH3 0x1AE JUMP JUMPDEST DUP3 PUSH1 0x1 PUSH1 0x0 PUSH2 0x100 EXP DUP2 SLOAD DUP2 PUSH20 0xFFFFFFFFFFFFFFFFFFFFFFFFFFFFFFFFFFFFFFFF MUL NOT AND SWAP1 DUP4 PUSH20 0xFFFFFFFFFFFFFFFFFFFFFFFFFFFFFFFFFFFFFFFF AND MUL OR SWAP1 SSTORE POP DUP2 PUSH1 0x2 PUSH1 0x0 PUSH2 0x100 EXP DUP2 SLOAD DUP2 PUSH20 0xFFFFFFFFFFFFFFFFFFFFFFFFFFFFFFFFFFFFFFFF MUL NOT AND SWAP1 DUP4 PUSH20 0xFFFFFFFFFFFFFFFFFFFFFFFFFFFFFFFFFFFFFFFF AND MUL OR SWAP1 SSTORE POP DUP1 PUSH1 0x3 DUP2 SWAP1 SSTORE POP CALLER PUSH1 0x0 DUP1 PUSH2 0x100 EXP DUP2 SLOAD DUP2 PUSH20 0xFFFFFFFFFFFFFFFFFFFFFFFFFFFFFFFFFFFFFFFF MUL NOT AND SWAP1 DUP4 PUSH20 0xFFFFFFFFFFFFFFFFFFFFFFFFFFFFFFFFFFFFFFFF AND MUL OR SWAP1 SSTORE POP POP POP POP PUSH3 0x20A JUMP JUMPDEST PUSH1 0x0 DUP1 REVERT JUMPDEST PUSH1 0x0 PUSH20 0xFFFFFFFFFFFFFFFFFFFFFFFFFFFFFFFFFFFFFFFF DUP3 AND SWAP1 POP SWAP2 SWAP1 POP JUMP JUMPDEST PUSH1 0x0 PUSH3 0x13B DUP3 PUSH3 0x10E JUMP JUMPDEST SWAP1 POP SWAP2 SWAP1 POP JUMP JUMPDEST PUSH3 0x14D DUP2 PUSH3 0x12E JUMP JUMPDEST DUP2 EQ PUSH3 0x159 JUMPI PUSH1 0x0 DUP1 REVERT JUMPDEST POP JUMP JUMPDEST PUSH1 0x0 DUP2 MLOAD SWAP1 POP PUSH3 0x16D DUP2 PUSH3 0x142 JUMP JUMPDEST SWAP3 SWAP2 POP POP JUMP JUMPDEST PUSH1 0x0 DUP2 SWAP1 POP SWAP2 SWAP1 POP JUMP JUMPDEST PUSH3 0x188 DUP2 PUSH3 0x173 JUMP JUMPDEST DUP2 EQ PUSH3 0x194 JUMPI PUSH1 0x0 DUP1 REVERT JUMPDEST POP JUMP JUMPDEST PUSH1 0x0 DUP2 MLOAD SWAP1 POP PUSH3 0x1A8 DUP2 PUSH3 0x17D JUMP JUMPDEST SWAP3 SWAP2 POP POP JUMP JUMPDEST PUSH1 0x0 DUP1 PUSH1 0x0 PUSH1 0x60 DUP5 DUP7 SUB SLT ISZERO PUSH3 0x1CA JUMPI PUSH3 0x1C9 PUSH3 0x109 JUMP JUMPDEST JUMPDEST PUSH1 0x0 PUSH3 0x1DA DUP7 DUP3 DUP8 ADD PUSH3 0x15C JUMP JUMPDEST SWAP4 POP POP PUSH1 0x20 PUSH3 0x1ED DUP7 DUP3 DUP8 ADD PUSH3 0x15C JUMP JUMPDEST SWAP3 POP POP PUSH1 0x40 PUSH3 0x200 DUP7 DUP3 DUP8 ADD PUSH3 0x197 JUMP JUMPDEST SWAP2 POP POP SWAP3 POP SWAP3 POP SWAP3 JUMP JUMPDEST PUSH2 0x1083 DUP1 PUSH3 0x21A PUSH1 0x0 CODECOPY PUSH1 0x0 RETURN INVALID PUSH1 0x80 PUSH1 0x40 MSTORE CALLVALUE DUP1 ISZERO PUSH2 0x10 JUMPI PUSH1 0x0 DUP1 REVERT JUMPDEST POP PUSH1 0x4 CALLDATASIZE LT PUSH2 0x7D JUMPI PUSH1 0x0 CALLDATALOAD PUSH1 0xE0 SHR DUP1 PUSH4 0x5BF8633A GT PUSH2 0x5B JUMPI DUP1 PUSH4 0x5BF8633A EQ PUSH2 0xD8 JUMPI DUP1 PUSH4 0xBF8EBD85 EQ PUSH2 0xF6 JUMPI DUP1 PUSH4 0xC884EF83 EQ PUSH2 0x126 JUMPI DUP1 PUSH4 0xFC0C546A EQ PUSH2 0x156 JUMPI PUSH2 0x7D JUMP JUMPDEST DUP1 PUSH4 0xBCAE1AC EQ PUSH2 0x82 JUMPI DUP1 PUSH4 0x1072CBEA EQ PUSH2 0x9E JUMPI DUP1 PUSH4 0x2EB4A7AB EQ PUSH2 0xBA JUMPI JUMPDEST PUSH1 0x0 DUP1 REVERT JUMPDEST PUSH2 0x9C PUSH1 0x4 DUP1 CALLDATASIZE SUB DUP2 ADD SWAP1 PUSH2 0x97 SWAP2 SWAP1 PUSH2 0xA70 JUMP JUMPDEST PUSH2 0x174 JUMP JUMPDEST STOP JUMPDEST PUSH2 0xB8 PUSH1 0x4 DUP1 CALLDATASIZE SUB DUP2 ADD SWAP1 PUSH2 0xB3 SWAP2 SWAP1 PUSH2 0xB2E JUMP JUMPDEST PUSH2 0x480 JUMP JUMPDEST STOP JUMPDEST PUSH2 0xC2 PUSH2 0x6D0 JUMP JUMPDEST PUSH1 0x40 MLOAD PUSH2 0xCF SWAP2 SWAP1 PUSH2 0xB87 JUMP JUMPDEST PUSH1 0x40 MLOAD DUP1 SWAP2 SUB SWAP1 RETURN JUMPDEST PUSH2 0xE0 PUSH2 0x6D6 JUMP JUMPDEST PUSH1 0x40 MLOAD PUSH2 0xED SWAP2 SWAP1 PUSH2 0xBB1 JUMP JUMPDEST PUSH1 0x40 MLOAD DUP1 SWAP2 SUB SWAP1 RETURN JUMPDEST PUSH2 0x110 PUSH1 0x4 DUP1 CALLDATASIZE SUB DUP2 ADD SWAP1 PUSH2 0x10B SWAP2 SWAP1 PUSH2 0xBCC JUMP JUMPDEST PUSH2 0x6FC JUMP JUMPDEST PUSH1 0x40 MLOAD PUSH2 0x11D SWAP2 SWAP1 PUSH2 0xC08 JUMP JUMPDEST PUSH1 0x40 MLOAD DUP1 SWAP2 SUB SWAP1 RETURN JUMPDEST PUSH2 0x140 PUSH1 0x4 DUP1 CALLDATASIZE SUB DUP2 ADD SWAP1 PUSH2 0x13B SWAP2 SWAP1 PUSH2 0xBCC JUMP JUMPDEST PUSH2 0x7A1 JUMP JUMPDEST PUSH1 0x40 MLOAD PUSH2 0x14D SWAP2 SWAP1 PUSH2 0xC3E JUMP JUMPDEST PUSH1 0x40 MLOAD DUP1 SWAP2 SUB SWAP1 RETURN JUMPDEST PUSH2 0x15E PUSH2 0x7C1 JUMP JUMPDEST PUSH1 0x40 MLOAD PUSH2 0x16B SWAP2 SWAP1 PUSH2 0xBB1 JUMP JUMPDEST PUSH1 0x40 MLOAD DUP1 SWAP2 SUB SWAP1 RETURN JUMPDEST PUSH2 0x17D CALLER PUSH2 0x7E7 JUMP JUMPDEST PUSH1 0x1 PUSH1 0x2 PUSH1 0x0 SWAP1 SLOAD SWAP1 PUSH2 0x100 EXP SWAP1 DIV PUSH20 0xFFFFFFFFFFFFFFFFFFFFFFFFFFFFFFFFFFFFFFFF AND PUSH20 0xFFFFFFFFFFFFFFFFFFFFFFFFFFFFFFFFFFFFFFFF AND PUSH4 0x70A08231 CALLER PUSH1 0x40 MLOAD DUP3 PUSH4 0xFFFFFFFF AND PUSH1 0xE0 SHL DUP2 MSTORE PUSH1 0x4 ADD PUSH2 0x1DA SWAP2 SWAP1 PUSH2 0xBB1 JUMP JUMPDEST PUSH1 0x20 PUSH1 0x40 MLOAD DUP1 DUP4 SUB DUP2 DUP7 GAS STATICCALL ISZERO DUP1 ISZERO PUSH2 0x1F7 JUMPI RETURNDATASIZE PUSH1 0x0 DUP1 RETURNDATACOPY RETURNDATASIZE PUSH1 0x0 REVERT JUMPDEST POP POP POP POP PUSH1 0x40 MLOAD RETURNDATASIZE PUSH1 0x1F NOT PUSH1 0x1F DUP3 ADD AND DUP3 ADD DUP1 PUSH1 0x40 MSTORE POP DUP2 ADD SWAP1 PUSH2 0x21B SWAP2 SWAP1 PUSH2 0xC6E JUMP JUMPDEST LT ISZERO PUSH2 0x253 JUMPI PUSH1 0x40 MLOAD PUSH32 0xB7930B4000000000000000000000000000000000000000000000000000000000 DUP2 MSTORE PUSH1 0x4 ADD PUSH1 0x40 MLOAD DUP1 SWAP2 SUB SWAP1 REVERT JUMPDEST PUSH2 0x25B PUSH2 0x8BF JUMP JUMPDEST ISZERO PUSH2 0x292 JUMPI PUSH1 0x40 MLOAD PUSH32 0x5183DE0D00000000000000000000000000000000000000000000000000000000 DUP2 MSTORE PUSH1 0x4 ADD PUSH1 0x40 MLOAD DUP1 SWAP2 SUB SWAP1 REVERT JUMPDEST PUSH1 0x0 CALLER DUP5 PUSH1 0x40 MLOAD PUSH1 0x20 ADD PUSH2 0x2A7 SWAP3 SWAP2 SWAP1 PUSH2 0xD04 JUMP JUMPDEST PUSH1 0x40 MLOAD PUSH1 0x20 DUP2 DUP4 SUB SUB DUP2 MSTORE SWAP1 PUSH1 0x40 MSTORE DUP1 MLOAD SWAP1 PUSH1 0x20 ADD KECCAK256 SWAP1 POP PUSH2 0x30D DUP4 DUP4 DUP1 DUP1 PUSH1 0x20 MUL PUSH1 0x20 ADD PUSH1 0x40 MLOAD SWAP1 DUP2 ADD PUSH1 0x40 MSTORE DUP1 SWAP4 SWAP3 SWAP2 SWAP1 DUP2 DUP2 MSTORE PUSH1 0x20 ADD DUP4 DUP4 PUSH1 0x20 MUL DUP1 DUP3 DUP5 CALLDATACOPY PUSH1 0x0 DUP2 DUP5 ADD MSTORE PUSH1 0x1F NOT PUSH1 0x1F DUP3 ADD AND SWAP1 POP DUP1 DUP4 ADD SWAP3 POP POP POP POP POP POP POP PUSH1 0x3 SLOAD DUP4 PUSH2 0x91C JUMP JUMPDEST PUSH2 0x343 JUMPI PUSH1 0x40 MLOAD PUSH32 0xED3C247C00000000000000000000000000000000000000000000000000000000 DUP2 MSTORE PUSH1 0x4 ADD PUSH1 0x40 MLOAD DUP1 SWAP2 SUB SWAP1 REVERT JUMPDEST PUSH1 0x1 PUSH1 0x4 PUSH1 0x0 CALLER PUSH20 0xFFFFFFFFFFFFFFFFFFFFFFFFFFFFFFFFFFFFFFFF AND PUSH20 0xFFFFFFFFFFFFFFFFFFFFFFFFFFFFFFFFFFFFFFFF AND DUP2 MSTORE PUSH1 0x20 ADD SWAP1 DUP2 MSTORE PUSH1 0x20 ADD PUSH1 0x0 KECCAK256 PUSH1 0x0 PUSH2 0x100 EXP DUP2 SLOAD DUP2 PUSH1 0xFF MUL NOT AND SWAP1 DUP4 ISZERO ISZERO MUL OR SWAP1 SSTORE POP PUSH1 0x1 PUSH1 0x0 SWAP1 SLOAD SWAP1 PUSH2 0x100 EXP SWAP1 DIV PUSH20 0xFFFFFFFFFFFFFFFFFFFFFFFFFFFFFFFFFFFFFFFF AND PUSH20 0xFFFFFFFFFFFFFFFFFFFFFFFFFFFFFFFFFFFFFFFF AND PUSH4 0xA9059CBB CALLER DUP7 PUSH1 0x40 MLOAD DUP4 PUSH4 0xFFFFFFFF AND PUSH1 0xE0 SHL DUP2 MSTORE PUSH1 0x4 ADD PUSH2 0x3F8 SWAP3 SWAP2 SWAP1 PUSH2 0xD30 JUMP JUMPDEST PUSH1 0x20 PUSH1 0x40 MLOAD DUP1 DUP4 SUB DUP2 PUSH1 0x0 DUP8 GAS CALL ISZERO DUP1 ISZERO PUSH2 0x417 JUMPI RETURNDATASIZE PUSH1 0x0 DUP1 RETURNDATACOPY RETURNDATASIZE PUSH1 0x0 REVERT JUMPDEST POP POP POP POP PUSH1 0x40 MLOAD RETURNDATASIZE PUSH1 0x1F NOT PUSH1 0x1F DUP3 ADD AND DUP3 ADD DUP1 PUSH1 0x40 MSTORE POP DUP2 ADD SWAP1 PUSH2 0x43B SWAP2 SWAP1 PUSH2 0xD85 JUMP JUMPDEST PUSH2 0x47A JUMPI PUSH1 0x40 MLOAD PUSH32 0x8C379A000000000000000000000000000000000000000000000000000000000 DUP2 MSTORE PUSH1 0x4 ADD PUSH2 0x471 SWAP1 PUSH2 0xE0F JUMP JUMPDEST PUSH1 0x40 MLOAD DUP1 SWAP2 SUB SWAP1 REVERT JUMPDEST POP POP POP POP JUMP JUMPDEST PUSH2 0x489 CALLER PUSH2 0x7E7 JUMP JUMPDEST PUSH1 0x0 PUSH20 0xFFFFFFFFFFFFFFFFFFFFFFFFFFFFFFFFFFFFFFFF AND DUP3 PUSH20 0xFFFFFFFFFFFFFFFFFFFFFFFFFFFFFFFFFFFFFFFF AND SUB PUSH2 0x4F8 JUMPI PUSH1 0x40 MLOAD PUSH32 0x8C379A000000000000000000000000000000000000000000000000000000000 DUP2 MSTORE PUSH1 0x4 ADD PUSH2 0x4EF SWAP1 PUSH2 0xE7B JUMP JUMPDEST PUSH1 0x40 MLOAD DUP1 SWAP2 SUB SWAP1 REVERT JUMPDEST DUP1 PUSH1 0x5 PUSH1 0x0 CALLER PUSH20 0xFFFFFFFFFFFFFFFFFFFFFFFFFFFFFFFFFFFFFFFF AND PUSH20 0xFFFFFFFFFFFFFFFFFFFFFFFFFFFFFFFFFFFFFFFF AND DUP2 MSTORE PUSH1 0x20 ADD SWAP1 DUP2 MSTORE PUSH1 0x20 ADD PUSH1 0x0 KECCAK256 SLOAD LT ISZERO PUSH2 0x57A JUMPI PUSH1 0x40 MLOAD PUSH32 0x8C379A000000000000000000000000000000000000000000000000000000000 DUP2 MSTORE PUSH1 0x4 ADD PUSH2 0x571 SWAP1 PUSH2 0xEE7 JUMP JUMPDEST PUSH1 0x40 MLOAD DUP1 SWAP2 SUB SWAP1 REVERT JUMPDEST DUP1 PUSH1 0x5 PUSH1 0x0 CALLER PUSH20 0xFFFFFFFFFFFFFFFFFFFFFFFFFFFFFFFFFFFFFFFF AND PUSH20 0xFFFFFFFFFFFFFFFFFFFFFFFFFFFFFFFFFFFFFFFF AND DUP2 MSTORE PUSH1 0x20 ADD SWAP1 DUP2 MSTORE PUSH1 0x20 ADD PUSH1 0x0 KECCAK256 PUSH1 0x0 DUP3 DUP3 SLOAD PUSH2 0x5C9 SWAP2 SWAP1 PUSH2 0xF36 JUMP JUMPDEST SWAP3 POP POP DUP2 SWAP1 SSTORE POP PUSH1 0x1 PUSH1 0x0 SWAP1 SLOAD SWAP1 PUSH2 0x100 EXP SWAP1 DIV PUSH20 0xFFFFFFFFFFFFFFFFFFFFFFFFFFFFFFFFFFFFFFFF AND PUSH20 0xFFFFFFFFFFFFFFFFFFFFFFFFFFFFFFFFFFFFFFFF AND PUSH4 0xA9059CBB DUP4 DUP4 PUSH1 0x40 MLOAD DUP4 PUSH4 0xFFFFFFFF AND PUSH1 0xE0 SHL DUP2 MSTORE PUSH1 0x4 ADD PUSH2 0x62D SWAP3 SWAP2 SWAP1 PUSH2 0xD30 JUMP JUMPDEST PUSH1 0x20 PUSH1 0x40 MLOAD DUP1 DUP4 SUB DUP2 PUSH1 0x0 DUP8 GAS CALL ISZERO DUP1 ISZERO PUSH2 0x64C JUMPI RETURNDATASIZE PUSH1 0x0 DUP1 RETURNDATACOPY RETURNDATASIZE PUSH1 0x0 REVERT JUMPDEST POP POP POP POP PUSH1 0x40 MLOAD RETURNDATASIZE PUSH1 0x1F NOT PUSH1 0x1F DUP3 ADD AND DUP3 ADD DUP1 PUSH1 0x40 MSTORE POP DUP2 ADD SWAP1 PUSH2 0x670 SWAP2 SWAP1 PUSH2 0xD85 JUMP JUMPDEST POP DUP1 DUP3 PUSH20 0xFFFFFFFFFFFFFFFFFFFFFFFFFFFFFFFFFFFFFFFF AND CALLER PUSH20 0xFFFFFFFFFFFFFFFFFFFFFFFFFFFFFFFFFFFFFFFF AND PUSH32 0xD6D3EB25A413C05D8107FC49DEB2789BEF7F612582B2482804C0B0423B6638EE PUSH1 0x40 MLOAD PUSH1 0x40 MLOAD DUP1 SWAP2 SUB SWAP1 LOG4 POP POP JUMP JUMPDEST PUSH1 0x3 SLOAD DUP2 JUMP JUMPDEST PUSH1 0x2 PUSH1 0x0 SWAP1 SLOAD SWAP1 PUSH2 0x100 EXP SWAP1 DIV PUSH20 0xFFFFFFFFFFFFFFFFFFFFFFFFFFFFFFFFFFFFFFFF AND DUP2 JUMP JUMPDEST PUSH1 0x0 PUSH1 0x2 PUSH1 0x0 SWAP1 SLOAD SWAP1 PUSH2 0x100 EXP SWAP1 DIV PUSH20 0xFFFFFFFFFFFFFFFFFFFFFFFFFFFFFFFFFFFFFFFF AND PUSH20 0xFFFFFFFFFFFFFFFFFFFFFFFFFFFFFFFFFFFFFFFF AND PUSH4 0x70A08231 DUP4 PUSH1 0x40 MLOAD DUP3 PUSH4 0xFFFFFFFF AND PUSH1 0xE0 SHL DUP2 MSTORE PUSH1 0x4 ADD PUSH2 0x759 SWAP2 SWAP1 PUSH2 0xBB1 JUMP JUMPDEST PUSH1 0x20 PUSH1 0x40 MLOAD DUP1 DUP4 SUB DUP2 DUP7 GAS STATICCALL ISZERO DUP1 ISZERO PUSH2 0x776 JUMPI RETURNDATASIZE PUSH1 0x0 DUP1 RETURNDATACOPY RETURNDATASIZE PUSH1 0x0 REVERT JUMPDEST POP POP POP POP PUSH1 0x40 MLOAD RETURNDATASIZE PUSH1 0x1F NOT PUSH1 0x1F DUP3 ADD AND DUP3 ADD DUP1 PUSH1 0x40 MSTORE POP DUP2 ADD SWAP1 PUSH2 0x79A SWAP2 SWAP1 PUSH2 0xC6E JUMP JUMPDEST SWAP1 POP SWAP2 SWAP1 POP JUMP JUMPDEST PUSH1 0x4 PUSH1 0x20 MSTORE DUP1 PUSH1 0x0 MSTORE PUSH1 0x40 PUSH1 0x0 KECCAK256 PUSH1 0x0 SWAP2 POP SLOAD SWAP1 PUSH2 0x100 EXP SWAP1 DIV PUSH1 0xFF AND DUP2 JUMP JUMPDEST PUSH1 0x1 PUSH1 0x0 SWAP1 SLOAD SWAP1 PUSH2 0x100 EXP SWAP1 DIV PUSH20 0xFFFFFFFFFFFFFFFFFFFFFFFFFFFFFFFFFFFFFFFF AND DUP2 JUMP JUMPDEST PUSH1 0x0 PUSH20 0xFFFFFFFFFFFFFFFFFFFFFFFFFFFFFFFFFFFFFFFF AND DUP2 PUSH20 0xFFFFFFFFFFFFFFFFFFFFFFFFFFFFFFFFFFFFFFFF AND EQ PUSH2 0x856 JUMPI PUSH1 0x40 MLOAD PUSH32 0x8C379A000000000000000000000000000000000000000000000000000000000 DUP2 MSTORE PUSH1 0x4 ADD PUSH2 0x84D SWAP1 PUSH2 0xFB6 JUMP JUMPDEST PUSH1 0x40 MLOAD DUP1 SWAP2 SUB SWAP1 REVERT JUMPDEST PUSH1 0x0 PUSH20 0xFFFFFFFFFFFFFFFFFFFFFFFFFFFFFFFFFFFFFFFF AND DUP2 PUSH20 0xFFFFFFFFFFFFFFFFFFFFFFFFFFFFFFFFFFFFFFFF AND SUB PUSH2 0x8BC JUMPI PUSH1 0x40 MLOAD PUSH32 0xCFA8C0B500000000000000000000000000000000000000000000000000000000 DUP2 MSTORE PUSH1 0x4 ADD PUSH1 0x40 MLOAD DUP1 SWAP2 SUB SWAP1 REVERT JUMPDEST POP JUMP JUMPDEST PUSH1 0x0 PUSH2 0x8CA CALLER PUSH2 0x7E7 JUMP JUMPDEST PUSH1 0x4 PUSH1 0x0 CALLER PUSH20 0xFFFFFFFFFFFFFFFFFFFFFFFFFFFFFFFFFFFFFFFF AND PUSH20 0xFFFFFFFFFFFFFFFFFFFFFFFFFFFFFFFFFFFFFFFF AND DUP2 MSTORE PUSH1 0x20 ADD SWAP1 DUP2 MSTORE PUSH1 0x20 ADD PUSH1 0x0 KECCAK256 PUSH1 0x0 SWAP1 SLOAD SWAP1 PUSH2 0x100 EXP SWAP1 DIV PUSH1 0xFF AND SWAP1 POP SWAP1 JUMP JUMPDEST PUSH1 0x0 DUP3 PUSH2 0x929 DUP6 DUP5 PUSH2 0x933 JUMP JUMPDEST EQ SWAP1 POP SWAP4 SWAP3 POP POP POP JUMP JUMPDEST PUSH1 0x0 DUP1 DUP3 SWAP1 POP PUSH1 0x0 JUMPDEST DUP5 MLOAD DUP2 LT ISZERO PUSH2 0x97E JUMPI PUSH2 0x969 DUP3 DUP7 DUP4 DUP2 MLOAD DUP2 LT PUSH2 0x95C JUMPI PUSH2 0x95B PUSH2 0xFD6 JUMP JUMPDEST JUMPDEST PUSH1 0x20 MUL PUSH1 0x20 ADD ADD MLOAD PUSH2 0x989 JUMP JUMPDEST SWAP2 POP DUP1 DUP1 PUSH2 0x976 SWAP1 PUSH2 0x1005 JUMP JUMPDEST SWAP2 POP POP PUSH2 0x93C JUMP JUMPDEST POP DUP1 SWAP2 POP POP SWAP3 SWAP2 POP POP JUMP JUMPDEST PUSH1 0x0 DUP2 DUP4 LT PUSH2 0x9A1 JUMPI PUSH2 0x99C DUP3 DUP5 PUSH2 0x9B4 JUMP JUMPDEST PUSH2 0x9AC JUMP JUMPDEST PUSH2 0x9AB DUP4 DUP4 PUSH2 0x9B4 JUMP JUMPDEST JUMPDEST SWAP1 POP SWAP3 SWAP2 POP POP JUMP JUMPDEST PUSH1 0x0 DUP3 PUSH1 0x0 MSTORE DUP2 PUSH1 0x20 MSTORE PUSH1 0x40 PUSH1 0x0 KECCAK256 SWAP1 POP SWAP3 SWAP2 POP POP JUMP JUMPDEST PUSH1 0x0 DUP1 REVERT JUMPDEST PUSH1 0x0 DUP1 REVERT JUMPDEST PUSH1 0x0 DUP2 SWAP1 POP SWAP2 SWAP1 POP JUMP JUMPDEST PUSH2 0x9E8 DUP2 PUSH2 0x9D5 JUMP JUMPDEST DUP2 EQ PUSH2 0x9F3 JUMPI PUSH1 0x0 DUP1 REVERT JUMPDEST POP JUMP JUMPDEST PUSH1 0x0 DUP2 CALLDATALOAD SWAP1 POP PUSH2 0xA05 DUP2 PUSH2 0x9DF JUMP JUMPDEST SWAP3 SWAP2 POP POP JUMP JUMPDEST PUSH1 0x0 DUP1 REVERT JUMPDEST PUSH1 0x0 DUP1 REVERT JUMPDEST PUSH1 0x0 DUP1 REVERT JUMPDEST PUSH1 0x0 DUP1 DUP4 PUSH1 0x1F DUP5 ADD SLT PUSH2 0xA30 JUMPI PUSH2 0xA2F PUSH2 0xA0B JUMP JUMPDEST JUMPDEST DUP3 CALLDATALOAD SWAP1 POP PUSH8 0xFFFFFFFFFFFFFFFF DUP2 GT ISZERO PUSH2 0xA4D JUMPI PUSH2 0xA4C PUSH2 0xA10 JUMP JUMPDEST JUMPDEST PUSH1 0x20 DUP4 ADD SWAP2 POP DUP4 PUSH1 0x20 DUP3 MUL DUP4 ADD GT ISZERO PUSH2 0xA69 JUMPI PUSH2 0xA68 PUSH2 0xA15 JUMP JUMPDEST JUMPDEST SWAP3 POP SWAP3 SWAP1 POP JUMP JUMPDEST PUSH1 0x0 DUP1 PUSH1 0x0 PUSH1 0x40 DUP5 DUP7 SUB SLT ISZERO PUSH2 0xA89 JUMPI PUSH2 0xA88 PUSH2 0x9CB JUMP JUMPDEST JUMPDEST PUSH1 0x0 PUSH2 0xA97 DUP7 DUP3 DUP8 ADD PUSH2 0x9F6 JUMP JUMPDEST SWAP4 POP POP PUSH1 0x20 DUP5 ADD CALLDATALOAD PUSH8 0xFFFFFFFFFFFFFFFF DUP2 GT ISZERO PUSH2 0xAB8 JUMPI PUSH2 0xAB7 PUSH2 0x9D0 JUMP JUMPDEST JUMPDEST PUSH2 0xAC4 DUP7 DUP3 DUP8 ADD PUSH2 0xA1A JUMP JUMPDEST SWAP3 POP SWAP3 POP POP SWAP3 POP SWAP3 POP SWAP3 JUMP JUMPDEST PUSH1 0x0 PUSH20 0xFFFFFFFFFFFFFFFFFFFFFFFFFFFFFFFFFFFFFFFF DUP3 AND SWAP1 POP SWAP2 SWAP1 POP JUMP JUMPDEST PUSH1 0x0 PUSH2 0xAFB DUP3 PUSH2 0xAD0 JUMP JUMPDEST SWAP1 POP SWAP2 SWAP1 POP JUMP JUMPDEST PUSH2 0xB0B DUP2 PUSH2 0xAF0 JUMP JUMPDEST DUP2 EQ PUSH2 0xB16 JUMPI PUSH1 0x0 DUP1 REVERT JUMPDEST POP JUMP JUMPDEST PUSH1 0x0 DUP2 CALLDATALOAD SWAP1 POP PUSH2 0xB28 DUP2 PUSH2 0xB02 JUMP JUMPDEST SWAP3 SWAP2 POP POP JUMP JUMPDEST PUSH1 0x0 DUP1 PUSH1 0x40 DUP4 DUP6 SUB SLT ISZERO PUSH2 0xB45 JUMPI PUSH2 0xB44 PUSH2 0x9CB JUMP JUMPDEST JUMPDEST PUSH1 0x0 PUSH2 0xB53 DUP6 DUP3 DUP7 ADD PUSH2 0xB19 JUMP JUMPDEST SWAP3 POP POP PUSH1 0x20 PUSH2 0xB64 DUP6 DUP3 DUP7 ADD PUSH2 0x9F6 JUMP JUMPDEST SWAP2 POP POP SWAP3 POP SWAP3 SWAP1 POP JUMP JUMPDEST PUSH1 0x0 DUP2 SWAP1 POP SWAP2 SWAP1 POP JUMP JUMPDEST PUSH2 0xB81 DUP2 PUSH2 0xB6E JUMP JUMPDEST DUP3 MSTORE POP POP JUMP JUMPDEST PUSH1 0x0 PUSH1 0x20 DUP3 ADD SWAP1 POP PUSH2 0xB9C PUSH1 0x0 DUP4 ADD DUP5 PUSH2 0xB78 JUMP JUMPDEST SWAP3 SWAP2 POP POP JUMP JUMPDEST PUSH2 0xBAB DUP2 PUSH2 0xAF0 JUMP JUMPDEST DUP3 MSTORE POP POP JUMP JUMPDEST PUSH1 0x0 PUSH1 0x20 DUP3 ADD SWAP1 POP PUSH2 0xBC6 PUSH1 0x0 DUP4 ADD DUP5 PUSH2 0xBA2 JUMP JUMPDEST SWAP3 SWAP2 POP POP JUMP JUMPDEST PUSH1 0x0 PUSH1 0x20 DUP3 DUP5 SUB SLT ISZERO PUSH2 0xBE2 JUMPI PUSH2 0xBE1 PUSH2 0x9CB JUMP JUMPDEST JUMPDEST PUSH1 0x0 PUSH2 0xBF0 DUP5 DUP3 DUP6 ADD PUSH2 0xB19 JUMP JUMPDEST SWAP2 POP POP SWAP3 SWAP2 POP POP JUMP JUMPDEST PUSH2 0xC02 DUP2 PUSH2 0x9D5 JUMP JUMPDEST DUP3 MSTORE POP POP JUMP JUMPDEST PUSH1 0x0 PUSH1 0x20 DUP3 ADD SWAP1 POP PUSH2 0xC1D PUSH1 0x0 DUP4 ADD DUP5 PUSH2 0xBF9 JUMP JUMPDEST SWAP3 SWAP2 POP POP JUMP JUMPDEST PUSH1 0x0 DUP2 ISZERO ISZERO SWAP1 POP SWAP2 SWAP1 POP JUMP JUMPDEST PUSH2 0xC38 DUP2 PUSH2 0xC23 JUMP JUMPDEST DUP3 MSTORE POP POP JUMP JUMPDEST PUSH1 0x0 PUSH1 0x20 DUP3 ADD SWAP1 POP PUSH2 0xC53 PUSH1 0x0 DUP4 ADD DUP5 PUSH2 0xC2F JUMP JUMPDEST SWAP3 SWAP2 POP POP JUMP JUMPDEST PUSH1 0x0 DUP2 MLOAD SWAP1 POP PUSH2 0xC68 DUP2 PUSH2 0x9DF JUMP JUMPDEST SWAP3 SWAP2 POP POP JUMP JUMPDEST PUSH1 0x0 PUSH1 0x20 DUP3 DUP5 SUB SLT ISZERO PUSH2 0xC84 JUMPI PUSH2 0xC83 PUSH2 0x9CB JUMP JUMPDEST JUMPDEST PUSH1 0x0 PUSH2 0xC92 DUP5 DUP3 DUP6 ADD PUSH2 0xC59 JUMP JUMPDEST SWAP2 POP POP SWAP3 SWAP2 POP POP JUMP JUMPDEST PUSH1 0x0 DUP2 PUSH1 0x60 SHL SWAP1 POP SWAP2 SWAP1 POP JUMP JUMPDEST PUSH1 0x0 PUSH2 0xCB3 DUP3 PUSH2 0xC9B JUMP JUMPDEST SWAP1 POP SWAP2 SWAP1 POP JUMP JUMPDEST PUSH1 0x0 PUSH2 0xCC5 DUP3 PUSH2 0xCA8 JUMP JUMPDEST SWAP1 POP SWAP2 SWAP1 POP JUMP JUMPDEST PUSH2 0xCDD PUSH2 0xCD8 DUP3 PUSH2 0xAF0 JUMP JUMPDEST PUSH2 0xCBA JUMP JUMPDEST DUP3 MSTORE POP POP JUMP JUMPDEST PUSH1 0x0 DUP2 SWAP1 POP SWAP2 SWAP1 POP JUMP JUMPDEST PUSH2 0xCFE PUSH2 0xCF9 DUP3 PUSH2 0x9D5 JUMP JUMPDEST PUSH2 0xCE3 JUMP JUMPDEST DUP3 MSTORE POP POP JUMP JUMPDEST PUSH1 0x0 PUSH2 0xD10 DUP3 DUP6 PUSH2 0xCCC JUMP JUMPDEST PUSH1 0x14 DUP3 ADD SWAP2 POP PUSH2 0xD20 DUP3 DUP5 PUSH2 0xCED JUMP JUMPDEST PUSH1 0x20 DUP3 ADD SWAP2 POP DUP2 SWAP1 POP SWAP4 SWAP3 POP POP POP JUMP JUMPDEST PUSH1 0x0 PUSH1 0x40 DUP3 ADD SWAP1 POP PUSH2 0xD45 PUSH1 0x0 DUP4 ADD DUP6 PUSH2 0xBA2 JUMP JUMPDEST PUSH2 0xD52 PUSH1 0x20 DUP4 ADD DUP5 PUSH2 0xBF9 JUMP JUMPDEST SWAP4 SWAP3 POP POP POP JUMP JUMPDEST PUSH2 0xD62 DUP2 PUSH2 0xC23 JUMP JUMPDEST DUP2 EQ PUSH2 0xD6D JUMPI PUSH1 0x0 DUP1 REVERT JUMPDEST POP JUMP JUMPDEST PUSH1 0x0 DUP2 MLOAD SWAP1 POP PUSH2 0xD7F DUP2 PUSH2 0xD59 JUMP JUMPDEST SWAP3 SWAP2 POP POP JUMP JUMPDEST PUSH1 0x0 PUSH1 0x20 DUP3 DUP5 SUB SLT ISZERO PUSH2 0xD9B JUMPI PUSH2 0xD9A PUSH2 0x9CB JUMP JUMPDEST JUMPDEST PUSH1 0x0 PUSH2 0xDA9 DUP5 DUP3 DUP6 ADD PUSH2 0xD70 JUMP JUMPDEST SWAP2 POP POP SWAP3 SWAP2 POP POP JUMP JUMPDEST PUSH1 0x0 DUP3 DUP3 MSTORE PUSH1 0x20 DUP3 ADD SWAP1 POP SWAP3 SWAP2 POP POP JUMP JUMPDEST PUSH32 0x5472616E73666572206661696C65642E00000000000000000000000000000000 PUSH1 0x0 DUP3 ADD MSTORE POP JUMP JUMPDEST PUSH1 0x0 PUSH2 0xDF9 PUSH1 0x10 DUP4 PUSH2 0xDB2 JUMP JUMPDEST SWAP2 POP PUSH2 0xE04 DUP3 PUSH2 0xDC3 JUMP JUMPDEST PUSH1 0x20 DUP3 ADD SWAP1 POP SWAP2 SWAP1 POP JUMP JUMPDEST PUSH1 0x0 PUSH1 0x20 DUP3 ADD SWAP1 POP DUP2 DUP2 SUB PUSH1 0x0 DUP4 ADD MSTORE PUSH2 0xE28 DUP2 PUSH2 0xDEC JUMP JUMPDEST SWAP1 POP SWAP2 SWAP1 POP JUMP JUMPDEST PUSH32 0x63616E27742073656E6420746F00000000000000000000000000000000000000 PUSH1 0x0 DUP3 ADD MSTORE POP JUMP JUMPDEST PUSH1 0x0 PUSH2 0xE65 PUSH1 0xD DUP4 PUSH2 0xDB2 JUMP JUMPDEST SWAP2 POP PUSH2 0xE70 DUP3 PUSH2 0xE2F JUMP JUMPDEST PUSH1 0x20 DUP3 ADD SWAP1 POP SWAP2 SWAP1 POP JUMP JUMPDEST PUSH1 0x0 PUSH1 0x20 DUP3 ADD SWAP1 POP DUP2 DUP2 SUB PUSH1 0x0 DUP4 ADD MSTORE PUSH2 0xE94 DUP2 PUSH2 0xE58 JUMP JUMPDEST SWAP1 POP SWAP2 SWAP1 POP JUMP JUMPDEST PUSH32 0x496E73756666696369656E742066756E64732100000000000000000000000000 PUSH1 0x0 DUP3 ADD MSTORE POP JUMP JUMPDEST PUSH1 0x0 PUSH2 0xED1 PUSH1 0x13 DUP4 PUSH2 0xDB2 JUMP JUMPDEST SWAP2 POP PUSH2 0xEDC DUP3 PUSH2 0xE9B JUMP JUMPDEST PUSH1 0x20 DUP3 ADD SWAP1 POP SWAP2 SWAP1 POP JUMP JUMPDEST PUSH1 0x0 PUSH1 0x20 DUP3 ADD SWAP1 POP DUP2 DUP2 SUB PUSH1 0x0 DUP4 ADD MSTORE PUSH2 0xF00 DUP2 PUSH2 0xEC4 JUMP JUMPDEST SWAP1 POP SWAP2 SWAP1 POP JUMP JUMPDEST PUSH32 0x4E487B7100000000000000000000000000000000000000000000000000000000 PUSH1 0x0 MSTORE PUSH1 0x11 PUSH1 0x4 MSTORE PUSH1 0x24 PUSH1 0x0 REVERT JUMPDEST PUSH1 0x0 PUSH2 0xF41 DUP3 PUSH2 0x9D5 JUMP JUMPDEST SWAP2 POP PUSH2 0xF4C DUP4 PUSH2 0x9D5 JUMP JUMPDEST SWAP3 POP DUP3 DUP3 SUB SWAP1 POP DUP2 DUP2 GT ISZERO PUSH2 0xF64 JUMPI PUSH2 0xF63 PUSH2 0xF07 JUMP JUMPDEST JUMPDEST SWAP3 SWAP2 POP POP JUMP JUMPDEST PUSH32 0x5A65726F20616464726573732064657465637465640000000000000000000000 PUSH1 0x0 DUP3 ADD MSTORE POP JUMP JUMPDEST PUSH1 0x0 PUSH2 0xFA0 PUSH1 0x15 DUP4 PUSH2 0xDB2 JUMP JUMPDEST SWAP2 POP PUSH2 0xFAB DUP3 PUSH2 0xF6A JUMP JUMPDEST PUSH1 0x20 DUP3 ADD SWAP1 POP SWAP2 SWAP1 POP JUMP JUMPDEST PUSH1 0x0 PUSH1 0x20 DUP3 ADD SWAP1 POP DUP2 DUP2 SUB PUSH1 0x0 DUP4 ADD MSTORE PUSH2 0xFCF DUP2 PUSH2 0xF93 JUMP JUMPDEST SWAP1 POP SWAP2 SWAP1 POP JUMP JUMPDEST PUSH32 0x4E487B7100000000000000000000000000000000000000000000000000000000 PUSH1 0x0 MSTORE PUSH1 0x32 PUSH1 0x4 MSTORE PUSH1 0x24 PUSH1 0x0 REVERT JUMPDEST PUSH1 0x0 PUSH2 0x1010 DUP3 PUSH2 0x9D5 JUMP JUMPDEST SWAP2 POP PUSH32 0xFFFFFFFFFFFFFFFFFFFFFFFFFFFFFFFFFFFFFFFFFFFFFFFFFFFFFFFFFFFFFFFF DUP3 SUB PUSH2 0x1042 JUMPI PUSH2 0x1041 PUSH2 0xF07 JUMP JUMPDEST JUMPDEST PUSH1 0x1 DUP3 ADD SWAP1 POP SWAP2 SWAP1 POP JUMP INVALID LOG2 PUSH5 0x6970667358 0x22 SLT KECCAK256 CODESIZE 0xE9 0xC7 BALANCE 0xBB 0xD3 0x4C PUSH8 0x82111E7141E1C616 0xC9 PUSH2 0x518C 0x4A KECCAK256 CODESIZE 0x2A DUP2 0xD4 ORIGIN 0xA8 XOR PUSH18 0xDB8B64736F6C634300081400330000000000 "
        },
        "methodIdentifiers": {
          "claimAirdrop(uint256,bytes32[])": "0bcae1ac",
          "claimed(address)": "c884ef83",
          "getNFTBalance(address)": "bf8ebd85",
          "merkleRoot()": "2eb4a7ab",
          "nftAddress()": "5bf8633a",
          "token()": "fc0c546a",
          "transferToken(address,uint256)": "1072cbea"
        }
      }
    }
  }
}