{
  "_format": "hh-sol-artifact-1",
  "contractName": "merkelTreeAirdrop",
  "sourceName": "contracts/merkelTreeAirdrop.sol",
  "abi": [
    {
      "inputs": [
        {
          "internalType": "address",
          "name": "_token",
          "type": "address"
        },
        {
          "internalType": "address",
          "name": "_nftAddress",
          "type": "address"
        },
        {
          "internalType": "bytes32",
          "name": "_merkleRoot",
          "type": "bytes32"
        }
      ],
      "stateMutability": "nonpayable",
      "type": "constructor"
    },
    {
      "inputs": [],
      "name": "HasClaimedRewardsAlready",
      "type": "error"
    },
    {
      "inputs": [],
      "name": "InvalidClaim",
      "type": "error"
    },
    {
      "inputs": [],
      "name": "NftNotFound",
      "type": "error"
    },
    {
      "inputs": [],
      "name": "UnAuthorizedFunctionCall",
      "type": "error"
    },
    {
      "inputs": [],
      "name": "UnclaimedTokenStillMuch",
      "type": "error"
    },
    {
      "inputs": [],
      "name": "ZeroValueDetected",
      "type": "error"
    },
    {
      "inputs": [],
      "name": "zeroAddressDetected",
      "type": "error"
    },
    {
      "anonymous": false,
      "inputs": [
        {
          "indexed": true,
          "internalType": "address",
          "name": "_user",
          "type": "address"
        },
        {
          "indexed": true,
          "internalType": "uint256",
          "name": "_amount",
          "type": "uint256"
        }
      ],
      "name": "AirdropClaimed",
      "type": "event"
    },
    {
      "anonymous": false,
      "inputs": [
        {
          "indexed": true,
          "internalType": "address",
          "name": "_owner",
          "type": "address"
        },
        {
          "indexed": true,
          "internalType": "address",
          "name": "_user",
          "type": "address"
        },
        {
          "indexed": true,
          "internalType": "uint256",
          "name": "_amount",
          "type": "uint256"
        }
      ],
      "name": "TransferSuccessful",
      "type": "event"
    },
    {
      "anonymous": false,
      "inputs": [
        {
          "indexed": true,
          "internalType": "address",
          "name": "_owner",
          "type": "address"
        },
        {
          "indexed": true,
          "internalType": "uint256",
          "name": "_amount",
          "type": "uint256"
        }
      ],
      "name": "WithdrawalSuccessful",
      "type": "event"
    },
    {
      "inputs": [
        {
          "internalType": "uint256",
          "name": "_amount",
          "type": "uint256"
        },
        {
          "internalType": "bytes32[]",
          "name": "_merkelProof",
          "type": "bytes32[]"
        }
      ],
      "name": "claimAirdrop",
      "outputs": [],
      "stateMutability": "nonpayable",
      "type": "function"
    },
    {
      "inputs": [
        {
          "internalType": "address",
          "name": "",
          "type": "address"
        }
      ],
      "name": "claimed",
      "outputs": [
        {
          "internalType": "bool",
          "name": "",
          "type": "bool"
        }
      ],
      "stateMutability": "view",
      "type": "function"
    },
    {
      "inputs": [
        {
          "internalType": "address",
          "name": "_user",
          "type": "address"
        }
      ],
      "name": "getNFTBalance",
      "outputs": [
        {
          "internalType": "uint256",
          "name": "",
          "type": "uint256"
        }
      ],
      "stateMutability": "view",
      "type": "function"
    },
    {
      "inputs": [],
      "name": "merkleRoot",
      "outputs": [
        {
          "internalType": "bytes32",
          "name": "",
          "type": "bytes32"
        }
      ],
      "stateMutability": "view",
      "type": "function"
    },
    {
      "inputs": [],
      "name": "nftAddress",
      "outputs": [
        {
          "internalType": "address",
          "name": "",
          "type": "address"
        }
      ],
      "stateMutability": "view",
      "type": "function"
    },
    {
      "inputs": [],
      "name": "token",
      "outputs": [
        {
          "internalType": "address",
          "name": "",
          "type": "address"
        }
      ],
      "stateMutability": "view",
      "type": "function"
    },
    {
      "inputs": [
        {
          "internalType": "address",
          "name": "_to",
          "type": "address"
        },
        {
          "internalType": "uint256",
          "name": "_amount",
          "type": "uint256"
        }
      ],
      "name": "transferToken",
      "outputs": [],
      "stateMutability": "nonpayable",
      "type": "function"
    }
  ],
  "bytecode": "0x60806040523480156200001157600080fd5b506040516200129d3803806200129d8339818101604052810190620000379190620001ae565b82600160006101000a81548173ffffffffffffffffffffffffffffffffffffffff021916908373ffffffffffffffffffffffffffffffffffffffff16021790555081600260006101000a81548173ffffffffffffffffffffffffffffffffffffffff021916908373ffffffffffffffffffffffffffffffffffffffff16021790555080600381905550336000806101000a81548173ffffffffffffffffffffffffffffffffffffffff021916908373ffffffffffffffffffffffffffffffffffffffff1602179055505050506200020a565b600080fd5b600073ffffffffffffffffffffffffffffffffffffffff82169050919050565b60006200013b826200010e565b9050919050565b6200014d816200012e565b81146200015957600080fd5b50565b6000815190506200016d8162000142565b92915050565b6000819050919050565b620001888162000173565b81146200019457600080fd5b50565b600081519050620001a8816200017d565b92915050565b600080600060608486031215620001ca57620001c962000109565b5b6000620001da868287016200015c565b9350506020620001ed868287016200015c565b9250506040620002008682870162000197565b9150509250925092565b611083806200021a6000396000f3fe608060405234801561001057600080fd5b506004361061007d5760003560e01c80635bf8633a1161005b5780635bf8633a146100d8578063bf8ebd85146100f6578063c884ef8314610126578063fc0c546a146101565761007d565b80630bcae1ac146100825780631072cbea1461009e5780632eb4a7ab146100ba575b600080fd5b61009c60048036038101906100979190610a70565b610174565b005b6100b860048036038101906100b39190610b2e565b610480565b005b6100c26106d0565b6040516100cf9190610b87565b60405180910390f35b6100e06106d6565b6040516100ed9190610bb1565b60405180910390f35b610110600480360381019061010b9190610bcc565b6106fc565b60405161011d9190610c08565b60405180910390f35b610140600480360381019061013b9190610bcc565b6107a1565b60405161014d9190610c3e565b60405180910390f35b61015e6107c1565b60405161016b9190610bb1565b60405180910390f35b61017d336107e7565b6001600260009054906101000a900473ffffffffffffffffffffffffffffffffffffffff1673ffffffffffffffffffffffffffffffffffffffff166370a08231336040518263ffffffff1660e01b81526004016101da9190610bb1565b602060405180830381865afa1580156101f7573d6000803e3d6000fd5b505050506040513d601f19601f8201168201806040525081019061021b9190610c6e565b1015610253576040517fb7930b4000000000000000000000000000000000000000000000000000000000815260040160405180910390fd5b61025b6108bf565b15610292576040517f5183de0d00000000000000000000000000000000000000000000000000000000815260040160405180910390fd5b600033846040516020016102a7929190610d04565b60405160208183030381529060405280519060200120905061030d838380806020026020016040519081016040528093929190818152602001838360200280828437600081840152601f19601f820116905080830192505050505050506003548361091c565b610343576040517fed3c247c00000000000000000000000000000000000000000000000000000000815260040160405180910390fd5b6001600460003373ffffffffffffffffffffffffffffffffffffffff1673ffffffffffffffffffffffffffffffffffffffff16815260200190815260200160002060006101000a81548160ff021916908315150217905550600160009054906101000a900473ffffffffffffffffffffffffffffffffffffffff1673ffffffffffffffffffffffffffffffffffffffff1663a9059cbb33866040518363ffffffff1660e01b81526004016103f8929190610d30565b6020604051808303816000875af1158015610417573d6000803e3d6000fd5b505050506040513d601f19601f8201168201806040525081019061043b9190610d85565b61047a576040517f08c379a000000000000000000000000000000000000000000000000000000000815260040161047190610e0f565b60405180910390fd5b50505050565b610489336107e7565b600073ffffffffffffffffffffffffffffffffffffffff168273ffffffffffffffffffffffffffffffffffffffff16036104f8576040517f08c379a00000000000000000000000000000000000000000000000000000000081526004016104ef90610e7b565b60405180910390fd5b80600560003373ffffffffffffffffffffffffffffffffffffffff1673ffffffffffffffffffffffffffffffffffffffff16815260200190815260200160002054101561057a576040517f08c379a000000000000000000000000000000000000000000000000000000000815260040161057190610ee7565b60405180910390fd5b80600560003373ffffffffffffffffffffffffffffffffffffffff1673ffffffffffffffffffffffffffffffffffffffff16815260200190815260200160002060008282546105c99190610f36565b92505081905550600160009054906101000a900473ffffffffffffffffffffffffffffffffffffffff1673ffffffffffffffffffffffffffffffffffffffff1663a9059cbb83836040518363ffffffff1660e01b815260040161062d929190610d30565b6020604051808303816000875af115801561064c573d6000803e3d6000fd5b505050506040513d601f19601f820116820180604052508101906106709190610d85565b50808273ffffffffffffffffffffffffffffffffffffffff163373ffffffffffffffffffffffffffffffffffffffff167fd6d3eb25a413c05d8107fc49deb2789bef7f612582b2482804c0b0423b6638ee60405160405180910390a45050565b60035481565b600260009054906101000a900473ffffffffffffffffffffffffffffffffffffffff1681565b6000600260009054906101000a900473ffffffffffffffffffffffffffffffffffffffff1673ffffffffffffffffffffffffffffffffffffffff166370a08231836040518263ffffffff1660e01b81526004016107599190610bb1565b602060405180830381865afa158015610776573d6000803e3d6000fd5b505050506040513d601f19601f8201168201806040525081019061079a9190610c6e565b9050919050565b60046020528060005260406000206000915054906101000a900460ff1681565b600160009054906101000a900473ffffffffffffffffffffffffffffffffffffffff1681565b600073ffffffffffffffffffffffffffffffffffffffff168173ffffffffffffffffffffffffffffffffffffffff1614610856576040517f08c379a000000000000000000000000000000000000000000000000000000000815260040161084d90610fb6565b60405180910390fd5b600073ffffffffffffffffffffffffffffffffffffffff168173ffffffffffffffffffffffffffffffffffffffff16036108bc576040517fcfa8c0b500000000000000000000000000000000000000000000000000000000815260040160405180910390fd5b50565b60006108ca336107e7565b600460003373ffffffffffffffffffffffffffffffffffffffff1673ffffffffffffffffffffffffffffffffffffffff16815260200190815260200160002060009054906101000a900460ff16905090565b6000826109298584610933565b1490509392505050565b60008082905060005b845181101561097e576109698286838151811061095c5761095b610fd6565b5b6020026020010151610989565b9150808061097690611005565b91505061093c565b508091505092915050565b60008183106109a15761099c82846109b4565b6109ac565b6109ab83836109b4565b5b905092915050565b600082600052816020526040600020905092915050565b600080fd5b600080fd5b6000819050919050565b6109e8816109d5565b81146109f357600080fd5b50565b600081359050610a05816109df565b92915050565b600080fd5b600080fd5b600080fd5b60008083601f840112610a3057610a2f610a0b565b5b8235905067ffffffffffffffff811115610a4d57610a4c610a10565b5b602083019150836020820283011115610a6957610a68610a15565b5b9250929050565b600080600060408486031215610a8957610a886109cb565b5b6000610a97868287016109f6565b935050602084013567ffffffffffffffff811115610ab857610ab76109d0565b5b610ac486828701610a1a565b92509250509250925092565b600073ffffffffffffffffffffffffffffffffffffffff82169050919050565b6000610afb82610ad0565b9050919050565b610b0b81610af0565b8114610b1657600080fd5b50565b600081359050610b2881610b02565b92915050565b60008060408385031215610b4557610b446109cb565b5b6000610b5385828601610b19565b9250506020610b64858286016109f6565b9150509250929050565b6000819050919050565b610b8181610b6e565b82525050565b6000602082019050610b9c6000830184610b78565b92915050565b610bab81610af0565b82525050565b6000602082019050610bc66000830184610ba2565b92915050565b600060208284031215610be257610be16109cb565b5b6000610bf084828501610b19565b91505092915050565b610c02816109d5565b82525050565b6000602082019050610c1d6000830184610bf9565b92915050565b60008115159050919050565b610c3881610c23565b82525050565b6000602082019050610c536000830184610c2f565b92915050565b600081519050610c68816109df565b92915050565b600060208284031215610c8457610c836109cb565b5b6000610c9284828501610c59565b91505092915050565b60008160601b9050919050565b6000610cb382610c9b565b9050919050565b6000610cc582610ca8565b9050919050565b610cdd610cd882610af0565b610cba565b82525050565b6000819050919050565b610cfe610cf9826109d5565b610ce3565b82525050565b6000610d108285610ccc565b601482019150610d208284610ced565b6020820191508190509392505050565b6000604082019050610d456000830185610ba2565b610d526020830184610bf9565b9392505050565b610d6281610c23565b8114610d6d57600080fd5b50565b600081519050610d7f81610d59565b92915050565b600060208284031215610d9b57610d9a6109cb565b5b6000610da984828501610d70565b91505092915050565b600082825260208201905092915050565b7f5472616e73666572206661696c65642e00000000000000000000000000000000600082015250565b6000610df9601083610db2565b9150610e0482610dc3565b602082019050919050565b60006020820190508181036000830152610e2881610dec565b9050919050565b7f63616e27742073656e6420746f00000000000000000000000000000000000000600082015250565b6000610e65600d83610db2565b9150610e7082610e2f565b602082019050919050565b60006020820190508181036000830152610e9481610e58565b9050919050565b7f496e73756666696369656e742066756e64732100000000000000000000000000600082015250565b6000610ed1601383610db2565b9150610edc82610e9b565b602082019050919050565b60006020820190508181036000830152610f0081610ec4565b9050919050565b7f4e487b7100000000000000000000000000000000000000000000000000000000600052601160045260246000fd5b6000610f41826109d5565b9150610f4c836109d5565b9250828203905081811115610f6457610f63610f07565b5b92915050565b7f5a65726f20616464726573732064657465637465640000000000000000000000600082015250565b6000610fa0601583610db2565b9150610fab82610f6a565b602082019050919050565b60006020820190508181036000830152610fcf81610f93565b9050919050565b7f4e487b7100000000000000000000000000000000000000000000000000000000600052603260045260246000fd5b6000611010826109d5565b91507fffffffffffffffffffffffffffffffffffffffffffffffffffffffffffffffff820361104257611041610f07565b5b60018201905091905056fea264697066735822122038e9c731bbd34c6782111e7141e1c616c961518c4a20382a81d432a81871db8b64736f6c63430008140033",
  "linkReferences": {},
  "deployedLinkReferences": {}
}